{
  "contractName": "Reservation",
  "abi": [
    {
      "constant": true,
      "inputs": [
        {
          "internalType": "uint256",
          "name": "",
          "type": "uint256"
        }
      ],
      "name": "riders",
      "outputs": [
        {
          "internalType": "address",
          "name": "",
          "type": "address"
        }
      ],
      "payable": false,
      "stateMutability": "view",
      "type": "function"
    },
    {
      "constant": false,
      "inputs": [
        {
          "internalType": "uint256",
          "name": "driverId",
          "type": "uint256"
        }
      ],
      "name": "reserve",
      "outputs": [
        {
          "internalType": "uint256",
          "name": "",
          "type": "uint256"
        }
      ],
      "payable": false,
      "stateMutability": "nonpayable",
      "type": "function"
    },
    {
      "constant": true,
      "inputs": [],
      "name": "getRiders",
      "outputs": [
        {
          "internalType": "address[16]",
          "name": "",
          "type": "address[16]"
        }
      ],
      "payable": false,
      "stateMutability": "view",
      "type": "function"
    }
  ],
  "bytecode": "0x608060405234801561001057600080fd5b506102b9806100206000396000f3fe608060405234801561001057600080fd5b50600436106100415760003560e01c8063160c5638146100465780633ec37e901461008c578063819b25ba146100fa575b600080fd5b61004e61013c565b6040518082601060200280838360005b8381101561007957808201518184015260208101905061005e565b5050505090500191505060405180910390f35b6100b8600480360360208110156100a257600080fd5b81019080803590602001909291905050506101bd565b604051808273ffffffffffffffffffffffffffffffffffffffff1673ffffffffffffffffffffffffffffffffffffffff16815260200191505060405180910390f35b6101266004803603602081101561011057600080fd5b81019080803590602001909291905050506101f0565b6040518082815260200191505060405180910390f35b610144610261565b60006010806020026040519081016040528092919082601080156101b3576020028201915b8160009054906101000a900473ffffffffffffffffffffffffffffffffffffffff1673ffffffffffffffffffffffffffffffffffffffff1681526020019060010190808311610169575b5050505050905090565b600081601081106101ca57fe5b016000915054906101000a900473ffffffffffffffffffffffffffffffffffffffff1681565b60008082101580156102035750600f8211155b61020c57600080fd5b336000836010811061021a57fe5b0160006101000a81548173ffffffffffffffffffffffffffffffffffffffff021916908373ffffffffffffffffffffffffffffffffffffffff160217905550819050919050565b60405180610200016040528060109060208202803883398082019150509050509056fea265627a7a72315820527f7afaf42e4739424245b98bac982e1b987b490ec5b9d42c179af66306fd6864736f6c63430005100032",
  "source": "// \"additional information that only the compiler cares about\"\npragma solidity ^0.5.0;\n\ncontract Reservation {\n    // Solidity has a unique type called an address.\n    address[16] public riders;\n\n    // Reserving a ride\n    // We are checking to make sure driverId is in range of our rider array.\n    function reserve(uint driverId) public returns (uint) {\n      require(driverId >= 0 && driverId <= 15);\n    \n      riders[driverId] = msg.sender;\n    \n      return driverId;\n    }\n\n    // Retrieving the rider\n    // The view keyword in the function declaration means that the function will not modify the state of the contract. \n    function getRiders() public view returns (address[16] memory) {\n      return riders;\n    }\n\n    // Cancelling a ride\n    // We are checking to make sure driverId is in range of our rider array.\n    // function cancel(uint driverId) public returns (uint) {\n    //   require(driverId >= 0 && driverId <= 15);\n    \n    //   riders[driverId] = 0;\n    \n    //   return driverId;\n    // }\n\n    // // Checking if a driver is reserved\n    // // The view keyword in the function declaration means that the function will not modify the state of the contract.\n    // function isReserved(uint driverId) public view returns (bool) {\n    //   return riders[driverId] != 0;\n    // }\n\n    \n\n    \n}\n\n",
  "sourcePath": "/Users/joaquinbaltazar/Desktop/Vic/TEC/Tec-Ride/contracts/Reservation.sol",
  "compiler": {
    "name": "solc",
    "version": "0.5.16+commit.9c3226ce.Emscripten.clang"
  },
  "schemaVersion": "3.4.7",
  "updatedAt": "2022-06-13T19:04:47.035Z",
  "networkType": "ethereum",
  "devdoc": {
    "methods": {}
  },
  "userdoc": {
    "methods": {}
  }
}